S01B00004D6963726F636869705F546573745F303630352E7372656342
S113000045C0000060C000005EC000005CC000008D
S11300105AC0000058C0000056C0000054C0000080
S113002052C0000050C000004EC000004CC0000090
S113003025C1000048C0000046C0000044C00000C4
S113004042C0000040C00000E6C100003CC0000007
S11300503AC0000038C0000036C0000034C00000C0
S113006032C0000030C000002EC000002CC00000D0
S11300702AC0000028C00000D8C1000024C000002D
S113008022C0000020C000001EC0000011241FBEBA
S1130090CFEFD0E1DEBFCDBF11E0A0E0B1E0E2E6FA
S11300A0FAE000E00BBF02C007900D92A23AB1073C
S11300B0D9F722E0A2EAB1E001C01D92A33AB20747
S11300C0E1F7F9D0CCC49CCF8EB588608EBD8FE3A8
S11300D098E39BBD8ABD87B7806187BF8EB5856075
S11300E08EBD0895883078F028EF280F283078F0F6
S11300F020EF280F283070F028EE280F283020F544
S1130100E1E3F0E009C0282FEAE3F0E005C0E7E30B
S1130110F0E002C0E4E3F0E0662359F0308181E0CE
S113012090E002C0880F991F2A95E2F7832B808301
S11301300895308181E090E002C0880F991F2A95CC
S1130140E2F78095832380830895883078F028EF40
S1130150280F283078F020EF280F283070F028EE90
S1130160280F283020F5E2E3F0E009C0282FEBE364
S1130170F0E005C0E8E3F0E002C0E5E3F0E0662368
S113018059F0308181E090E002C0880F991F2A95D0
S1130190E2F7832B80830895308181E090E002C0F0
S11301A0880F991F2A95E2F7809583238083089509
S11301B088B3806188BB86E69EE00197F1F7000072
S11301C008958CEC9CE10197F1F700C0000088B31E
S11301D08F7E88BB089590919B0095FFFCCF809300
S11301E09C0008950F931F93CF93DF93CDB7DEB791
S11301F0C058D1090FB6F894DEBF0FBECDBF9E0123
S113020029573F4FF901419151919F0160E870E0F6
S1130210CE0101963FD18E010F5F1F4F08C08A3077
S113022011F48DE0D8DFF80181918F01D4DFF8015A
S113023080818111F4CF8DE0CEDF8AE0CCDFC0581D
S1130240DF4F0FB6F894DEBF0FBECDBFDF91CF9165
S11302501F910F9108951F9283E08F9382ED8F93E6
S11302608FEF8F9380E091E09F938F93BBDF0F908C
S11302700F900F900F900F900F9008951F920F9270
S11302800FB60F9211248F939F938091A2019091A6
S1130290A30101969093A3018093A2019091A401DC
S11302A081E089278093A4019F918F910F900FBEC5
S11302B00F901F90189561E08CE114DF8FEF87BBDE
S11302C003DF8ED099D078942FEF8FEF9CE22150EA
S11302D080409040E1F700C000006ADFBCDF61E0CD
S11302E08CE133DF1092A3011092A20180E191E02E
S11302F09F938F9377DF89E291E09F938F9372DFCF
S11303008BE391E09F938F936DDF81E591E09F9361
S11303108F9368DF8DB79EB708960FB6F8949EBF8B
S11303200FBE8DBFC0E04DDF8091A901823F09F06F
S113033046C0E091A701F0E0E855FE4F8081833F7D
S113034009F03DC08091AA01813371F4C13049F0B4
S11303502FDF87E691E09F938F9344DF0F900F90F8
S1130360C1E01092A7012BC0823349F5C23041F09D
S11303701FDF86E791E09F938F9334DF0F900F90F8
S1130380C091AB010C2F10E013DF033F110541F4C2
S113039085E891E09F938F9325DF0F900F900BC01A
S11303A01F92CF9382E991E09F938F931BDF0F906D
S11303B00F900F900F9005DF1092A701C2E080917B
S11303C0A401811104C060E08CE1BFDEACCF809158
S11303D0A401813009F0A7CF61E08CE1B6DEA3CFA0
S11303E0109290008FEB89B982E08BB988E98AB9C1
S11303F086E0809395000895109298008FEB809387
S1130400990082E080939B0088E980939A0086E0BB
S113041080939D0008951F920F920FB60F9211249E
S11304200F900FBE0F901F9018951F920F920FB64A
S11304300F9211240BB60F928F939F93EF93FF9318
S11304408091AA0190E09093A6018093A5019091D8
S11304509C00923F11F41092A701E091A70181E062
S11304608E0F8093A701F0E0E755FE4F90838A3FFB
S113047010F01092A70192B380E1892782BBFF910B
S1130480EF919F918F910F900BBE0F900FBE0F9025
S11304901F9018950F931F93CF93DF93CDB7DEB7BB
S11304A02E970FB6F894DEBF0FBECDBF8C01FA01B4
S11304B086E08C831A83098377FF02C060E070E8CA
S11304C0CB0101979E838D83A901BF01CE010196C3
S11304D019D04D815E8157FD0AC02F81388542179E
S11304E053070CF49A01F801E20FF31F10822E96C1
S11304F00FB6F894DEBF0FBECDBFDF91CF911F9131
S11305000F9108952F923F924F925F926F927F9234
S11305108F929F92AF92BF92CF92DF92EF92FF920F
S11305200F931F93CF93DF93CDB7DEB72B970FB6FF
S1130530F894DEBF0FBECDBF6C017B018A01FC01C4
S113054017821682838181FFBFC1CE0101963C01CF
S1130550F6019381F70193FD859193FF81917F01CA
S1130560882309F4ADC1853239F493FD859193FF55
S113057081917F01853221F4B60190E0D6D1E8CF94
S1130580912C212C312CFFE1F315D8F08B3279F02A
S113059038F4803279F08332A1F4232D20611DC018
S11305A08D3261F0803369F4232D216016C0832DD0
S11305B08260382EE32DE4603E2E2AC0F32DF860CD
S11305C01DC037FC2DC020ED280F2A3040F08E329C
S11305D0B9F436FC75C1232D2064322E19C036FEC1
S11305E006C08AE0989E200D1124922E11C0EAE0E4
S11305F02E9E200D1124222EF32DF0623F2E08C0D2
S11306008C3621F4832D8068382E02C0883641F45C
S1130610F70193FD859193FF81917F018111B3CF00
S1130620982F9F7D9554933028F40C5F1F4F9FE3C0
S113063099830DC0833631F0833771F0833509F027
S113064055C020C0F801808189830E5F1F4F882424
S11306508394912C530112C02801F2E04F0E511CD7
S1130660F801A080B18036FE03C0692D70E002C09D
S11306706FEF7FEFC5014ED14C018201F32DFF775F
S11306803F2E15C0280122E0420E511CF801A08023
S1130690B18036FE03C0692D70E002C06FEF7FEFBA
S11306A0C5012DD14C01F32DF0683F2E820133FC9E
S11306B019C0822D90E088169906A0F4B60180E254
S11306C090E033D12A94F5CFF50137FC859137FEBC
S11306D081915F01B60190E028D121102A9421E094
S11306E0821A91088114910479F7E1C0843611F0DB
S11306F0893639F5F80137FE07C06081718182813E
S113070093810C5F1F4F08C060817181072E000C1C
S1130710880B990B0E5F1F4FF32DFF763F2E97FF2B
S113072009C090958095709561957F4F8F4F9F4F2D
S1130730F0683F2E2AE030E0A30133D1882E8618DA
S113074044C0853731F4232D2F7EB22E2AE030E0C9
S113075025C0932D997FB92E8F36C1F018F48835B2
S113076079F0AEC0803719F0883721F0A9C0E92F9D
S1130770E061BE2EB4FE0DC0FB2DF460BF2E09C097
S113078034FE0AC0292F2660B22E06C028E030E0CD
S113079005C020E130E002C020E132E0F801B7FEFC
S11307A007C060817181828193810C5F1F4F06C0F5
S11307B06081718180E090E00E5F1F4FA301F1D052
S11307C0882E8618FB2DFF773F2E36FE0DC0232D75
S11307D02E7FA22E891458F434FE0BC032FC09C0BB
S11307E0832D8E7EA82E05C0B82CA32C03C0B82C54
S11307F001C0B92CA4FE0FC0FE01E80DF11D8081DB
S1130800803321F49A2D997EA92E09C0A2FE06C038
S1130810B394B39404C08A2D867809F0B394A3FCEE
S113082010C0A0FE06C0B21480F4280C922C9B18B1
S11308300DC0B21458F4B60180E290E076D0B394BF
S1130840F8CFB21418F42B1802C0982C212CA4FE53
S11308500FC0B60180E390E068D0A2FE16C0A1FCF0
S113086003C088E790E002C088E590E0B6010CC0C0
S11308708A2D867851F0A1FE02C08BE201C080E28D
S1130880A7FC8DE2B60190E050D0891430F4B60193
S113089080E390E04AD09A94F8CF8A94F301E80D6B
S11308A0F11D8081B60190E040D08110F6CF222066
S11308B009F44ECEB60180E290E037D02A94F7CF07
S11308C0F6018681978102C08FEF9FEF2B960FB6BA
S11308D0F894DEBF0FBECDBFDF91CF911F910F9172
S11308E0FF90EF90DF90CF90BF90AF909F908F904C
S11308F07F906F905F904F903F902F900895FC01F0
S11309000590615070400110D8F7809590958E0F36
S11309109F1F0895FC016150704001900110D8F7A9
S1130920809590958E0F9F1F08950F931F93CF93DB
S1130930DF93FB01238121FD03C08FEF9FEF2CC0C8
S113094022FF16C0468157812481358142175307FF
S113095044F4A081B1819D012F5F3F4F31832083F7
S11309608C93268137812F5F3F4F3783268314C0B2
S11309708B01EC01FB010084F185E02D0995892BA5
S1130980E1F6D80116968D919C91179701961796CA
S11309909C938E931697CE01DF91CF911F910F9167
S11309A00895FA01AA27283051F1203181F1E89401
S11309B06F936E7F6E5F7F4F8F4F9F4FAF4FB1E04E
S11309C03ED0B4E03CD0670F781F891F9A1FA11D49
S11309D0680F791F8A1F911DA11D6A0F711D811D4A
S11309E0911DA11D20D009F468943F912AE0269F0F
S11309F011243019305D3193DEF6CF010895462F6E
S1130A004770405D4193B3E00FD0C9F7F6CF462F4E
S1130A104F70405D4A3318F0495D31FD40524193B7
S1130A2002D0A9F7EACFB4E0A69597958795779574
S1130A306795BA95C9F700976105710508959B01FB
S1130A40AC010A2E06945795479537952795BA9584
S1130A50C9F7620F731F841F951FA01D0895F89492
S1050A60FFCFC2
S1130A6250726F67205665723A202530366C6400E6
S1130A7253656C65637420746865206D6F646520CA
S1130A82796F752077616E7400307833313A547817
S1130A92202F20307833323A527800657829205B4F
S1130AA246325D205B315D205B325D205B46335D07
S1130AB2003D3D3D3D3D3D3D3D3D3D3D3D3D3D3D9D
S1130AC23D3D3D3D3D3D0053656C65637420547866
S1130AD2206D6F64650053656C65637420527820E1
S1130AE26D6F646500696C6C6567616C2064617428
S1130AF261005278427566315B325D20697320254C
S1050B02580095
S9030000FC
